{
  "_format": "hh-sol-artifact-1",
  "contractName": "Metaverse",
  "sourceName": "contracts/Metaverse.sol",
  "abi": [
    {
      "inputs": [],
      "stateMutability": "nonpayable",
      "type": "constructor"
    },
    {
      "anonymous": false,
      "inputs": [
        {
          "indexed": true,
          "internalType": "address",
          "name": "owner",
          "type": "address"
        },
        {
          "indexed": true,
          "internalType": "address",
          "name": "approved",
          "type": "address"
        },
        {
          "indexed": true,
          "internalType": "uint256",
          "name": "tokenId",
          "type": "uint256"
        }
      ],
      "name": "Approval",
      "type": "event"
    },
    {
      "anonymous": false,
      "inputs": [
        {
          "indexed": true,
          "internalType": "address",
          "name": "owner",
          "type": "address"
        },
        {
          "indexed": true,
          "internalType": "address",
          "name": "operator",
          "type": "address"
        },
        {
          "indexed": false,
          "internalType": "bool",
          "name": "approved",
          "type": "bool"
        }
      ],
      "name": "ApprovalForAll",
      "type": "event"
    },
    {
      "anonymous": false,
      "inputs": [
        {
          "indexed": true,
          "internalType": "address",
          "name": "previousOwner",
          "type": "address"
        },
        {
          "indexed": true,
          "internalType": "address",
          "name": "newOwner",
          "type": "address"
        }
      ],
      "name": "OwnershipTransferred",
      "type": "event"
    },
    {
      "anonymous": false,
      "inputs": [
        {
          "indexed": true,
          "internalType": "address",
          "name": "from",
          "type": "address"
        },
        {
          "indexed": true,
          "internalType": "address",
          "name": "to",
          "type": "address"
        },
        {
          "indexed": true,
          "internalType": "uint256",
          "name": "tokenId",
          "type": "uint256"
        }
      ],
      "name": "Transfer",
      "type": "event"
    },
    {
      "inputs": [
        {
          "internalType": "address",
          "name": "to",
          "type": "address"
        },
        {
          "internalType": "uint256",
          "name": "tokenId",
          "type": "uint256"
        }
      ],
      "name": "approve",
      "outputs": [],
      "stateMutability": "nonpayable",
      "type": "function"
    },
    {
      "inputs": [
        {
          "internalType": "address",
          "name": "owner",
          "type": "address"
        }
      ],
      "name": "balanceOf",
      "outputs": [
        {
          "internalType": "uint256",
          "name": "",
          "type": "uint256"
        }
      ],
      "stateMutability": "view",
      "type": "function"
    },
    {
      "inputs": [
        {
          "internalType": "uint256",
          "name": "",
          "type": "uint256"
        }
      ],
      "name": "buildings",
      "outputs": [
        {
          "internalType": "string",
          "name": "name",
          "type": "string"
        },
        {
          "internalType": "int8",
          "name": "w",
          "type": "int8"
        },
        {
          "internalType": "int8",
          "name": "h",
          "type": "int8"
        },
        {
          "internalType": "int8",
          "name": "d",
          "type": "int8"
        },
        {
          "internalType": "int8",
          "name": "x",
          "type": "int8"
        },
        {
          "internalType": "int8",
          "name": "y",
          "type": "int8"
        },
        {
          "internalType": "int8",
          "name": "z",
          "type": "int8"
        }
      ],
      "stateMutability": "view",
      "type": "function"
    },
    {
      "inputs": [],
      "name": "cost",
      "outputs": [
        {
          "internalType": "uint256",
          "name": "",
          "type": "uint256"
        }
      ],
      "stateMutability": "view",
      "type": "function"
    },
    {
      "inputs": [
        {
          "internalType": "uint256",
          "name": "tokenId",
          "type": "uint256"
        }
      ],
      "name": "getApproved",
      "outputs": [
        {
          "internalType": "address",
          "name": "",
          "type": "address"
        }
      ],
      "stateMutability": "view",
      "type": "function"
    },
    {
      "inputs": [],
      "name": "getBuildings",
      "outputs": [
        {
          "components": [
            {
              "internalType": "string",
              "name": "name",
              "type": "string"
            },
            {
              "internalType": "int8",
              "name": "w",
              "type": "int8"
            },
            {
              "internalType": "int8",
              "name": "h",
              "type": "int8"
            },
            {
              "internalType": "int8",
              "name": "d",
              "type": "int8"
            },
            {
              "internalType": "int8",
              "name": "x",
              "type": "int8"
            },
            {
              "internalType": "int8",
              "name": "y",
              "type": "int8"
            },
            {
              "internalType": "int8",
              "name": "z",
              "type": "int8"
            }
          ],
          "internalType": "struct Metaverse.Building[]",
          "name": "",
          "type": "tuple[]"
        }
      ],
      "stateMutability": "view",
      "type": "function"
    },
    {
      "inputs": [],
      "name": "getOwnerBuildings",
      "outputs": [
        {
          "components": [
            {
              "internalType": "string",
              "name": "name",
              "type": "string"
            },
            {
              "internalType": "int8",
              "name": "w",
              "type": "int8"
            },
            {
              "internalType": "int8",
              "name": "h",
              "type": "int8"
            },
            {
              "internalType": "int8",
              "name": "d",
              "type": "int8"
            },
            {
              "internalType": "int8",
              "name": "x",
              "type": "int8"
            },
            {
              "internalType": "int8",
              "name": "y",
              "type": "int8"
            },
            {
              "internalType": "int8",
              "name": "z",
              "type": "int8"
            }
          ],
          "internalType": "struct Metaverse.Building[]",
          "name": "",
          "type": "tuple[]"
        }
      ],
      "stateMutability": "view",
      "type": "function"
    },
    {
      "inputs": [
        {
          "internalType": "address",
          "name": "owner",
          "type": "address"
        },
        {
          "internalType": "address",
          "name": "operator",
          "type": "address"
        }
      ],
      "name": "isApprovedForAll",
      "outputs": [
        {
          "internalType": "bool",
          "name": "",
          "type": "bool"
        }
      ],
      "stateMutability": "view",
      "type": "function"
    },
    {
      "inputs": [],
      "name": "maxSupply",
      "outputs": [
        {
          "internalType": "uint256",
          "name": "",
          "type": "uint256"
        }
      ],
      "stateMutability": "view",
      "type": "function"
    },
    {
      "inputs": [
        {
          "internalType": "string",
          "name": "_building_name",
          "type": "string"
        },
        {
          "internalType": "int8",
          "name": "_w",
          "type": "int8"
        },
        {
          "internalType": "int8",
          "name": "_h",
          "type": "int8"
        },
        {
          "internalType": "int8",
          "name": "_d",
          "type": "int8"
        },
        {
          "internalType": "int8",
          "name": "_x",
          "type": "int8"
        },
        {
          "internalType": "int8",
          "name": "_y",
          "type": "int8"
        },
        {
          "internalType": "int8",
          "name": "_z",
          "type": "int8"
        }
      ],
      "name": "mint",
      "outputs": [],
      "stateMutability": "payable",
      "type": "function"
    },
    {
      "inputs": [],
      "name": "name",
      "outputs": [
        {
          "internalType": "string",
          "name": "",
          "type": "string"
        }
      ],
      "stateMutability": "view",
      "type": "function"
    },
    {
      "inputs": [],
      "name": "owner",
      "outputs": [
        {
          "internalType": "address",
          "name": "",
          "type": "address"
        }
      ],
      "stateMutability": "view",
      "type": "function"
    },
    {
      "inputs": [
        {
          "internalType": "uint256",
          "name": "tokenId",
          "type": "uint256"
        }
      ],
      "name": "ownerOf",
      "outputs": [
        {
          "internalType": "address",
          "name": "",
          "type": "address"
        }
      ],
      "stateMutability": "view",
      "type": "function"
    },
    {
      "inputs": [],
      "name": "renounceOwnership",
      "outputs": [],
      "stateMutability": "nonpayable",
      "type": "function"
    },
    {
      "inputs": [
        {
          "internalType": "address",
          "name": "from",
          "type": "address"
        },
        {
          "internalType": "address",
          "name": "to",
          "type": "address"
        },
        {
          "internalType": "uint256",
          "name": "tokenId",
          "type": "uint256"
        }
      ],
      "name": "safeTransferFrom",
      "outputs": [],
      "stateMutability": "nonpayable",
      "type": "function"
    },
    {
      "inputs": [
        {
          "internalType": "address",
          "name": "from",
          "type": "address"
        },
        {
          "internalType": "address",
          "name": "to",
          "type": "address"
        },
        {
          "internalType": "uint256",
          "name": "tokenId",
          "type": "uint256"
        },
        {
          "internalType": "bytes",
          "name": "data",
          "type": "bytes"
        }
      ],
      "name": "safeTransferFrom",
      "outputs": [],
      "stateMutability": "nonpayable",
      "type": "function"
    },
    {
      "inputs": [
        {
          "internalType": "address",
          "name": "operator",
          "type": "address"
        },
        {
          "internalType": "bool",
          "name": "approved",
          "type": "bool"
        }
      ],
      "name": "setApprovalForAll",
      "outputs": [],
      "stateMutability": "nonpayable",
      "type": "function"
    },
    {
      "inputs": [
        {
          "internalType": "bytes4",
          "name": "interfaceId",
          "type": "bytes4"
        }
      ],
      "name": "supportsInterface",
      "outputs": [
        {
          "internalType": "bool",
          "name": "",
          "type": "bool"
        }
      ],
      "stateMutability": "view",
      "type": "function"
    },
    {
      "inputs": [],
      "name": "symbol",
      "outputs": [
        {
          "internalType": "string",
          "name": "",
          "type": "string"
        }
      ],
      "stateMutability": "view",
      "type": "function"
    },
    {
      "inputs": [
        {
          "internalType": "uint256",
          "name": "tokenId",
          "type": "uint256"
        }
      ],
      "name": "tokenURI",
      "outputs": [
        {
          "internalType": "string",
          "name": "",
          "type": "string"
        }
      ],
      "stateMutability": "view",
      "type": "function"
    },
    {
      "inputs": [],
      "name": "totalSupply",
      "outputs": [
        {
          "internalType": "uint256",
          "name": "",
          "type": "uint256"
        }
      ],
      "stateMutability": "view",
      "type": "function"
    },
    {
      "inputs": [
        {
          "internalType": "address",
          "name": "from",
          "type": "address"
        },
        {
          "internalType": "address",
          "name": "to",
          "type": "address"
        },
        {
          "internalType": "uint256",
          "name": "tokenId",
          "type": "uint256"
        }
      ],
      "name": "transferFrom",
      "outputs": [],
      "stateMutability": "nonpayable",
      "type": "function"
    },
    {
      "inputs": [
        {
          "internalType": "address",
          "name": "newOwner",
          "type": "address"
        }
      ],
      "name": "transferOwnership",
      "outputs": [],
      "stateMutability": "nonpayable",
      "type": "function"
    },
    {
      "inputs": [],
      "name": "withdraw",
      "outputs": [],
      "stateMutability": "payable",
      "type": "function"
    }
  ],
  "bytecode": "0x6080604052606460085567016345785d8a00006009553480156200002257600080fd5b506040518060400160405280600481526020017f4d455441000000000000000000000000000000000000000000000000000000008152506040518060400160405280600381526020017f4d4a4700000000000000000000000000000000000000000000000000000000008152508160009081620000a0919062000423565b508060019081620000b2919062000423565b505050620000d5620000c9620000db60201b60201c565b620000e360201b60201c565b6200050a565b600033905090565b6000600660009054906101000a900473ffffffffffffffffffffffffffffffffffffffff16905081600660006101000a81548173ffffffffffffffffffffffffffffffffffffffff021916908373ffffffffffffffffffffffffffffffffffffffff1602179055508173ffffffffffffffffffffffffffffffffffffffff168173ffffffffffffffffffffffffffffffffffffffff167f8be0079c531659141344cd1fd0a4f28419497f9722a3daafe3b4186f6b6457e060405160405180910390a35050565b600081519050919050565b7f4e487b7100000000000000000000000000000000000000000000000000000000600052604160045260246000fd5b7f4e487b7100000000000000000000000000000000000000000000000000000000600052602260045260246000fd5b600060028204905060018216806200022b57607f821691505b602082108103620002415762000240620001e3565b5b50919050565b60008190508160005260206000209050919050565b60006020601f8301049050919050565b600082821b905092915050565b600060088302620002ab7fffffffffffffffffffffffffffffffffffffffffffffffffffffffffffffffff826200026c565b620002b786836200026c565b95508019841693508086168417925050509392505050565b6000819050919050565b6000819050919050565b600062000304620002fe620002f884620002cf565b620002d9565b620002cf565b9050919050565b6000819050919050565b6200032083620002e3565b620003386200032f826200030b565b84845462000279565b825550505050565b600090565b6200034f62000340565b6200035c81848462000315565b505050565b5b8181101562000384576200037860008262000345565b60018101905062000362565b5050565b601f821115620003d3576200039d8162000247565b620003a8846200025c565b81016020851015620003b8578190505b620003d0620003c7856200025c565b83018262000361565b50505b505050565b600082821c905092915050565b6000620003f860001984600802620003d8565b1980831691505092915050565b6000620004138383620003e5565b9150826002028217905092915050565b6200042e82620001a9565b67ffffffffffffffff8111156200044a5762000449620001b4565b5b62000456825462000212565b6200046382828562000388565b600060209050601f8311600181146200049b576000841562000486578287015190505b62000492858262000405565b86555062000502565b601f198416620004ab8662000247565b60005b82811015620004d557848901518255600182019150602085019450602081019050620004ae565b86831015620004f55784890151620004f1601f891682620003e5565b8355505b6001600288020188555050505b505050505050565b613a56806200051a6000396000f3fe60806040526004361061014b5760003560e01c806370a08231116100b6578063c87b56dd1161006f578063c87b56dd14610468578063cbdca984146104a5578063d5abeb01146104d0578063d9cf6a26146104fb578063e985e9c514610526578063f2fde38b146105635761014b565b806370a082311461036c578063715018a6146103a95780638da5cb5b146103c057806395d89b41146103eb578063a22cb46514610416578063b88d4fde1461043f5761014b565b806323b872dd1161010857806323b872dd146102745780633ccfd60b1461029d57806342842e0e146102a75780634c96a062146102d05780636352211e146103135780636e0f3f1e146103505761014b565b806301ffc9a71461015057806306fdde031461018d578063081812fc146101b8578063095ea7b3146101f557806313faede61461021e57806318160ddd14610249575b600080fd5b34801561015c57600080fd5b5061017760048036038101906101729190612398565b61058c565b60405161018491906123e0565b60405180910390f35b34801561019957600080fd5b506101a261066e565b6040516101af919061248b565b60405180910390f35b3480156101c457600080fd5b506101df60048036038101906101da91906124e3565b610700565b6040516101ec9190612551565b60405180910390f35b34801561020157600080fd5b5061021c60048036038101906102179190612598565b610746565b005b34801561022a57600080fd5b5061023361085d565b60405161024091906125e7565b60405180910390f35b34801561025557600080fd5b5061025e610863565b60405161026b91906125e7565b60405180910390f35b34801561028057600080fd5b5061029b60048036038101906102969190612602565b610874565b005b6102a56108d4565b005b3480156102b357600080fd5b506102ce60048036038101906102c99190612602565b610932565b005b3480156102dc57600080fd5b506102f760048036038101906102f291906124e3565b610952565b60405161030a9796959493929190612671565b60405180910390f35b34801561031f57600080fd5b5061033a600480360381019061033591906124e3565b610a7a565b6040516103479190612551565b60405180910390f35b61036a60048036038101906103659190612848565b610b2b565b005b34801561037857600080fd5b50610393600480360381019061038e9190612906565b610ea3565b6040516103a091906125e7565b60405180910390f35b3480156103b557600080fd5b506103be610f5a565b005b3480156103cc57600080fd5b506103d5610f6e565b6040516103e29190612551565b60405180910390f35b3480156103f757600080fd5b50610400610f98565b60405161040d919061248b565b60405180910390f35b34801561042257600080fd5b5061043d6004803603810190610438919061295f565b61102a565b005b34801561044b57600080fd5b5061046660048036038101906104619190612a40565b611040565b005b34801561047457600080fd5b5061048f600480360381019061048a91906124e3565b6110a2565b60405161049c919061248b565b60405180910390f35b3480156104b157600080fd5b506104ba61110a565b6040516104c79190612c7a565b60405180910390f35b3480156104dc57600080fd5b506104e56112e6565b6040516104f291906125e7565b60405180910390f35b34801561050757600080fd5b506105106112ec565b60405161051d9190612c7a565b60405180910390f35b34801561053257600080fd5b5061054d60048036038101906105489190612c9c565b61148b565b60405161055a91906123e0565b60405180910390f35b34801561056f57600080fd5b5061058a60048036038101906105859190612906565b61151f565b005b60007f80ac58cd000000000000000000000000000000000000000000000000000000007bffffffffffffffffffffffffffffffffffffffffffffffffffffffff1916827bffffffffffffffffffffffffffffffffffffffffffffffffffffffff1916148061065757507f5b5e139f000000000000000000000000000000000000000000000000000000007bffffffffffffffffffffffffffffffffffffffffffffffffffffffff1916827bffffffffffffffffffffffffffffffffffffffffffffffffffffffff1916145b806106675750610666826115a2565b5b9050919050565b60606000805461067d90612d0b565b80601f01602080910402602001604051908101604052809291908181526020018280546106a990612d0b565b80156106f65780601f106106cb576101008083540402835291602001916106f6565b820191906000526020600020905b8154815290600101906020018083116106d957829003601f168201915b5050505050905090565b600061070b8261160c565b6004600083815260200190815260200160002060009054906101000a900473ffffffffffffffffffffffffffffffffffffffff169050919050565b600061075182610a7a565b90508073ffffffffffffffffffffffffffffffffffffffff168373ffffffffffffffffffffffffffffffffffffffff16036107c1576040517f08c379a00000000000000000000000000000000000000000000000000000000081526004016107b890612dae565b60405180910390fd5b8073ffffffffffffffffffffffffffffffffffffffff166107e0611657565b73ffffffffffffffffffffffffffffffffffffffff16148061080f575061080e81610809611657565b61148b565b5b61084e576040517f08c379a000000000000000000000000000000000000000000000000000000000815260040161084590612e40565b60405180910390fd5b610858838361165f565b505050565b60095481565b600061086f6007611718565b905090565b61088561087f611657565b82611726565b6108c4576040517f08c379a00000000000000000000000000000000000000000000000000000000081526004016108bb90612ed2565b60405180910390fd5b6108cf8383836117bb565b505050565b6108dc611a21565b60006108e6610f6e565b90508073ffffffffffffffffffffffffffffffffffffffff166108fc479081150290604051600060405180830381858888f1935050505015801561092e573d6000803e3d6000fd5b5050565b61094d83838360405180602001604052806000815250611040565b505050565b600b818154811061096257600080fd5b906000526020600020906002020160009150905080600001805461098590612d0b565b80601f01602080910402602001604051908101604052809291908181526020018280546109b190612d0b565b80156109fe5780601f106109d3576101008083540402835291602001916109fe565b820191906000526020600020905b8154815290600101906020018083116109e157829003601f168201915b5050505050908060010160009054906101000a900460000b908060010160019054906101000a900460000b908060010160029054906101000a900460000b908060010160039054906101000a900460000b908060010160049054906101000a900460000b908060010160059054906101000a900460000b905087565b6000806002600084815260200190815260200160002060009054906101000a900473ffffffffffffffffffffffffffffffffffffffff169050600073ffffffffffffffffffffffffffffffffffffffff168173ffffffffffffffffffffffffffffffffffffffff1603610b22576040517f08c379a0000000000000000000000000000000000000000000000000000000008152600401610b1990612f3e565b60405180910390fd5b80915050919050565b600854610b386007611718565b1115610b79576040517f08c379a0000000000000000000000000000000000000000000000000000000008152600401610b7090612faa565b60405180910390fd5b600954341015610bbe576040517f08c379a0000000000000000000000000000000000000000000000000000000008152600401610bb590613016565b60405180910390fd5b610bc86007611a9f565b610bdb33610bd66007611718565b611ab5565b60006040518060e001604052808981526020018860000b81526020018760000b81526020018660000b81526020018560000b81526020018460000b81526020018360000b8152509050600b8190806001815401808255809150506001900390600052602060002090600202016000909190919091506000820151816000019081610c6591906131e2565b5060208201518160010160006101000a81548160ff021916908360000b60ff16021790555060408201518160010160016101000a81548160ff021916908360000b60ff16021790555060608201518160010160026101000a81548160ff021916908360000b60ff16021790555060808201518160010160036101000a81548160ff021916908360000b60ff16021790555060a08201518160010160046101000a81548160ff021916908360000b60ff16021790555060c08201518160010160056101000a81548160ff021916908360000b60ff1602179055505050600a60003373ffffffffffffffffffffffffffffffffffffffff1673ffffffffffffffffffffffffffffffffffffffff1681526020019081526020016000208190806001815401808255809150506001900390600052602060002090600202016000909190919091506000820151816000019081610dbe91906131e2565b5060208201518160010160006101000a81548160ff021916908360000b60ff16021790555060408201518160010160016101000a81548160ff021916908360000b60ff16021790555060608201518160010160026101000a81548160ff021916908360000b60ff16021790555060808201518160010160036101000a81548160ff021916908360000b60ff16021790555060a08201518160010160046101000a81548160ff021916908360000b60ff16021790555060c08201518160010160056101000a81548160ff021916908360000b60ff16021790555050505050505050505050565b60008073ffffffffffffffffffffffffffffffffffffffff168273ffffffffffffffffffffffffffffffffffffffff1603610f13576040517f08c379a0000000000000000000000000000000000000000000000000000000008152600401610f0a90613326565b60405180910390fd5b600360008373ffffffffffffffffffffffffffffffffffffffff1673ffffffffffffffffffffffffffffffffffffffff168152602001908152602001600020549050919050565b610f62611a21565b610f6c6000611ad3565b565b6000600660009054906101000a900473ffffffffffffffffffffffffffffffffffffffff16905090565b606060018054610fa790612d0b565b80601f0160208091040260200160405190810160405280929190818152602001828054610fd390612d0b565b80156110205780601f10610ff557610100808354040283529160200191611020565b820191906000526020600020905b81548152906001019060200180831161100357829003601f168201915b5050505050905090565b61103c611035611657565b8383611b99565b5050565b61105161104b611657565b83611726565b611090576040517f08c379a000000000000000000000000000000000000000000000000000000000815260040161108790612ed2565b60405180910390fd5b61109c84848484611d05565b50505050565b60606110ad8261160c565b60006110b7611d61565b905060008151116110d75760405180602001604052806000815250611102565b806110e184611d78565b6040516020016110f2929190613382565b6040516020818303038152906040525b915050919050565b6060600a60003373ffffffffffffffffffffffffffffffffffffffff1673ffffffffffffffffffffffffffffffffffffffff168152602001908152602001600020805480602002602001604051908101604052809291908181526020016000905b828210156112dd57838290600052602060002090600202016040518060e001604052908160008201805461119e90612d0b565b80601f01602080910402602001604051908101604052809291908181526020018280546111ca90612d0b565b80156112175780601f106111ec57610100808354040283529160200191611217565b820191906000526020600020905b8154815290600101906020018083116111fa57829003601f168201915b505050505081526020016001820160009054906101000a900460000b60000b60000b81526020016001820160019054906101000a900460000b60000b60000b81526020016001820160029054906101000a900460000b60000b60000b81526020016001820160039054906101000a900460000b60000b60000b81526020016001820160049054906101000a900460000b60000b60000b81526020016001820160059054906101000a900460000b60000b60000b815250508152602001906001019061116b565b50505050905090565b60085481565b6060600b805480602002602001604051908101604052809291908181526020016000905b8282101561148257838290600052602060002090600202016040518060e001604052908160008201805461134390612d0b565b80601f016020809104026020016040519081016040528092919081815260200182805461136f90612d0b565b80156113bc5780601f10611391576101008083540402835291602001916113bc565b820191906000526020600020905b81548152906001019060200180831161139f57829003601f168201915b505050505081526020016001820160009054906101000a900460000b60000b60000b81526020016001820160019054906101000a900460000b60000b60000b81526020016001820160029054906101000a900460000b60000b60000b81526020016001820160039054906101000a900460000b60000b60000b81526020016001820160049054906101000a900460000b60000b60000b81526020016001820160059054906101000a900460000b60000b60000b8152505081526020019060010190611310565b50505050905090565b6000600560008473ffffffffffffffffffffffffffffffffffffffff1673ffffffffffffffffffffffffffffffffffffffff16815260200190815260200160002060008373ffffffffffffffffffffffffffffffffffffffff1673ffffffffffffffffffffffffffffffffffffffff16815260200190815260200160002060009054906101000a900460ff16905092915050565b611527611a21565b600073ffffffffffffffffffffffffffffffffffffffff168173ffffffffffffffffffffffffffffffffffffffff1603611596576040517f08c379a000000000000000000000000000000000000000000000000000000000815260040161158d90613418565b60405180910390fd5b61159f81611ad3565b50565b60007f01ffc9a7000000000000000000000000000000000000000000000000000000007bffffffffffffffffffffffffffffffffffffffffffffffffffffffff1916827bffffffffffffffffffffffffffffffffffffffffffffffffffffffff1916149050919050565b61161581611ed8565b611654576040517f08c379a000000000000000000000000000000000000000000000000000000000815260040161164b90612f3e565b60405180910390fd5b50565b600033905090565b816004600083815260200190815260200160002060006101000a81548173ffffffffffffffffffffffffffffffffffffffff021916908373ffffffffffffffffffffffffffffffffffffffff160217905550808273ffffffffffffffffffffffffffffffffffffffff166116d283610a7a565b73ffffffffffffffffffffffffffffffffffffffff167f8c5be1e5ebec7d5bd14f71427d1e84f3dd0314c0f7b2291e5b200ac8c7c3b92560405160405180910390a45050565b600081600001549050919050565b60008061173283610a7a565b90508073ffffffffffffffffffffffffffffffffffffffff168473ffffffffffffffffffffffffffffffffffffffff1614806117745750611773818561148b565b5b806117b257508373ffffffffffffffffffffffffffffffffffffffff1661179a84610700565b73ffffffffffffffffffffffffffffffffffffffff16145b91505092915050565b8273ffffffffffffffffffffffffffffffffffffffff166117db82610a7a565b73ffffffffffffffffffffffffffffffffffffffff1614611831576040517f08c379a0000000000000000000000000000000000000000000000000000000008152600401611828906134aa565b60405180910390fd5b600073ffffffffffffffffffffffffffffffffffffffff168273ffffffffffffffffffffffffffffffffffffffff16036118a0576040517f08c379a00000000000000000000000000000000000000000000000000000000081526004016118979061353c565b60405180910390fd5b6118ab838383611f44565b6118b660008261165f565b6001600360008573ffffffffffffffffffffffffffffffffffffffff1673ffffffffffffffffffffffffffffffffffffffff1681526020019081526020016000206000828254611906919061358b565b925050819055506001600360008473ffffffffffffffffffffffffffffffffffffffff1673ffffffffffffffffffffffffffffffffffffffff168152602001908152602001600020600082825461195d91906135bf565b92505081905550816002600083815260200190815260200160002060006101000a81548173ffffffffffffffffffffffffffffffffffffffff021916908373ffffffffffffffffffffffffffffffffffffffff160217905550808273ffffffffffffffffffffffffffffffffffffffff168473ffffffffffffffffffffffffffffffffffffffff167fddf252ad1be2c89b69c2b068fc378daa952ba7f163c4a11628f55a4df523b3ef60405160405180910390a4611a1c838383611f49565b505050565b611a29611657565b73ffffffffffffffffffffffffffffffffffffffff16611a47610f6e565b73ffffffffffffffffffffffffffffffffffffffff1614611a9d576040517f08c379a0000000000000000000000000000000000000000000000000000000008152600401611a949061363f565b60405180910390fd5b565b6001816000016000828254019250508190555050565b611acf828260405180602001604052806000815250611f4e565b5050565b6000600660009054906101000a900473ffffffffffffffffffffffffffffffffffffffff16905081600660006101000a81548173ffffffffffffffffffffffffffffffffffffffff021916908373ffffffffffffffffffffffffffffffffffffffff1602179055508173ffffffffffffffffffffffffffffffffffffffff168173ffffffffffffffffffffffffffffffffffffffff167f8be0079c531659141344cd1fd0a4f28419497f9722a3daafe3b4186f6b6457e060405160405180910390a35050565b8173ffffffffffffffffffffffffffffffffffffffff168373ffffffffffffffffffffffffffffffffffffffff1603611c07576040517f08c379a0000000000000000000000000000000000000000000000000000000008152600401611bfe906136ab565b60405180910390fd5b80600560008573ffffffffffffffffffffffffffffffffffffffff1673ffffffffffffffffffffffffffffffffffffffff16815260200190815260200160002060008473ffffffffffffffffffffffffffffffffffffffff1673ffffffffffffffffffffffffffffffffffffffff16815260200190815260200160002060006101000a81548160ff0219169083151502179055508173ffffffffffffffffffffffffffffffffffffffff168373ffffffffffffffffffffffffffffffffffffffff167f17307eab39ab6107e8899845ad3d59bd9653f200f220920489ca2b5937696c3183604051611cf891906123e0565b60405180910390a3505050565b611d108484846117bb565b611d1c84848484611fa9565b611d5b576040517f08c379a0000000000000000000000000000000000000000000000000000000008152600401611d529061373d565b60405180910390fd5b50505050565b606060405180602001604052806000815250905090565b606060008203611dbf576040518060400160405280600181526020017f30000000000000000000000000000000000000000000000000000000000000008152509050611ed3565b600082905060005b60008214611df1578080611dda9061375d565b915050600a82611dea91906137d4565b9150611dc7565b60008167ffffffffffffffff811115611e0d57611e0c6126f1565b5b6040519080825280601f01601f191660200182016040528015611e3f5781602001600182028036833780820191505090505b5090505b60008514611ecc57600182611e58919061358b565b9150600a85611e679190613805565b6030611e7391906135bf565b60f81b818381518110611e8957611e88613836565b5b60200101907effffffffffffffffffffffffffffffffffffffffffffffffffffffffffffff1916908160001a905350600a85611ec591906137d4565b9450611e43565b8093505050505b919050565b60008073ffffffffffffffffffffffffffffffffffffffff166002600084815260200190815260200160002060009054906101000a900473ffffffffffffffffffffffffffffffffffffffff1673ffffffffffffffffffffffffffffffffffffffff1614159050919050565b505050565b505050565b611f588383612130565b611f656000848484611fa9565b611fa4576040517f08c379a0000000000000000000000000000000000000000000000000000000008152600401611f9b9061373d565b60405180910390fd5b505050565b6000611fca8473ffffffffffffffffffffffffffffffffffffffff16612309565b15612123578373ffffffffffffffffffffffffffffffffffffffff1663150b7a02611ff3611657565b8786866040518563ffffffff1660e01b815260040161201594939291906138ba565b6020604051808303816000875af192505050801561205157506040513d601f19601f8201168201806040525081019061204e919061391b565b60015b6120d3573d8060008114612081576040519150601f19603f3d011682016040523d82523d6000602084013e612086565b606091505b5060008151036120cb576040517f08c379a00000000000000000000000000000000000000000000000000000000081526004016120c29061373d565b60405180910390fd5b805181602001fd5b63150b7a0260e01b7bffffffffffffffffffffffffffffffffffffffffffffffffffffffff1916817bffffffffffffffffffffffffffffffffffffffffffffffffffffffff191614915050612128565b600190505b949350505050565b600073ffffffffffffffffffffffffffffffffffffffff168273ffffffffffffffffffffffffffffffffffffffff160361219f576040517f08c379a000000000000000000000000000000000000000000000000000000000815260040161219690613994565b60405180910390fd5b6121a881611ed8565b156121e8576040517f08c379a00000000000000000000000000000000000000000000000000000000081526004016121df90613a00565b60405180910390fd5b6121f460008383611f44565b6001600360008473ffffffffffffffffffffffffffffffffffffffff1673ffffffffffffffffffffffffffffffffffffffff168152602001908152602001600020600082825461224491906135bf565b92505081905550816002600083815260200190815260200160002060006101000a81548173ffffffffffffffffffffffffffffffffffffffff021916908373ffffffffffffffffffffffffffffffffffffffff160217905550808273ffffffffffffffffffffffffffffffffffffffff16600073ffffffffffffffffffffffffffffffffffffffff167fddf252ad1be2c89b69c2b068fc378daa952ba7f163c4a11628f55a4df523b3ef60405160405180910390a461230560008383611f49565b5050565b6000808273ffffffffffffffffffffffffffffffffffffffff163b119050919050565b6000604051905090565b600080fd5b600080fd5b60007fffffffff0000000000000000000000000000000000000000000000000000000082169050919050565b61237581612340565b811461238057600080fd5b50565b6000813590506123928161236c565b92915050565b6000602082840312156123ae576123ad612336565b5b60006123bc84828501612383565b91505092915050565b60008115159050919050565b6123da816123c5565b82525050565b60006020820190506123f560008301846123d1565b92915050565b600081519050919050565b600082825260208201905092915050565b60005b8381101561243557808201518184015260208101905061241a565b60008484015250505050565b6000601f19601f8301169050919050565b600061245d826123fb565b6124678185612406565b9350612477818560208601612417565b61248081612441565b840191505092915050565b600060208201905081810360008301526124a58184612452565b905092915050565b6000819050919050565b6124c0816124ad565b81146124cb57600080fd5b50565b6000813590506124dd816124b7565b92915050565b6000602082840312156124f9576124f8612336565b5b6000612507848285016124ce565b91505092915050565b600073ffffffffffffffffffffffffffffffffffffffff82169050919050565b600061253b82612510565b9050919050565b61254b81612530565b82525050565b60006020820190506125666000830184612542565b92915050565b61257581612530565b811461258057600080fd5b50565b6000813590506125928161256c565b92915050565b600080604083850312156125af576125ae612336565b5b60006125bd85828601612583565b92505060206125ce858286016124ce565b9150509250929050565b6125e1816124ad565b82525050565b60006020820190506125fc60008301846125d8565b92915050565b60008060006060848603121561261b5761261a612336565b5b600061262986828701612583565b935050602061263a86828701612583565b925050604061264b868287016124ce565b9150509250925092565b60008160000b9050919050565b61266b81612655565b82525050565b600060e082019050818103600083015261268b818a612452565b905061269a6020830189612662565b6126a76040830188612662565b6126b46060830187612662565b6126c16080830186612662565b6126ce60a0830185612662565b6126db60c0830184612662565b98975050505050505050565b600080fd5b600080fd5b7f4e487b7100000000000000000000000000000000000000000000000000000000600052604160045260246000fd5b61272982612441565b810181811067ffffffffffffffff82111715612748576127476126f1565b5b80604052505050565b600061275b61232c565b90506127678282612720565b919050565b600067ffffffffffffffff821115612787576127866126f1565b5b61279082612441565b9050602081019050919050565b82818337600083830152505050565b60006127bf6127ba8461276c565b612751565b9050828152602081018484840111156127db576127da6126ec565b5b6127e684828561279d565b509392505050565b600082601f830112612803576128026126e7565b5b81356128138482602086016127ac565b91505092915050565b61282581612655565b811461283057600080fd5b50565b6000813590506128428161281c565b92915050565b600080600080600080600060e0888a03121561286757612866612336565b5b600088013567ffffffffffffffff8111156128855761288461233b565b5b6128918a828b016127ee565b97505060206128a28a828b01612833565b96505060406128b38a828b01612833565b95505060606128c48a828b01612833565b94505060806128d58a828b01612833565b93505060a06128e68a828b01612833565b92505060c06128f78a828b01612833565b91505092959891949750929550565b60006020828403121561291c5761291b612336565b5b600061292a84828501612583565b91505092915050565b61293c816123c5565b811461294757600080fd5b50565b60008135905061295981612933565b92915050565b6000806040838503121561297657612975612336565b5b600061298485828601612583565b92505060206129958582860161294a565b9150509250929050565b600067ffffffffffffffff8211156129ba576129b96126f1565b5b6129c382612441565b9050602081019050919050565b60006129e36129de8461299f565b612751565b9050828152602081018484840111156129ff576129fe6126ec565b5b612a0a84828561279d565b509392505050565b600082601f830112612a2757612a266126e7565b5b8135612a378482602086016129d0565b91505092915050565b60008060008060808587031215612a5a57612a59612336565b5b6000612a6887828801612583565b9450506020612a7987828801612583565b9350506040612a8a878288016124ce565b925050606085013567ffffffffffffffff811115612aab57612aaa61233b565b5b612ab787828801612a12565b91505092959194509250565b600081519050919050565b600082825260208201905092915050565b6000819050602082019050919050565b600082825260208201905092915050565b6000612b0b826123fb565b612b158185612aef565b9350612b25818560208601612417565b612b2e81612441565b840191505092915050565b612b4281612655565b82525050565b600060e0830160008301518482036000860152612b658282612b00565b9150506020830151612b7a6020860182612b39565b506040830151612b8d6040860182612b39565b506060830151612ba06060860182612b39565b506080830151612bb36080860182612b39565b5060a0830151612bc660a0860182612b39565b5060c0830151612bd960c0860182612b39565b508091505092915050565b6000612bf08383612b48565b905092915050565b6000602082019050919050565b6000612c1082612ac3565b612c1a8185612ace565b935083602082028501612c2c85612adf565b8060005b85811015612c685784840389528151612c498582612be4565b9450612c5483612bf8565b925060208a01995050600181019050612c30565b50829750879550505050505092915050565b60006020820190508181036000830152612c948184612c05565b905092915050565b60008060408385031215612cb357612cb2612336565b5b6000612cc185828601612583565b9250506020612cd285828601612583565b9150509250929050565b7f4e487b7100000000000000000000000000000000000000000000000000000000600052602260045260246000fd5b60006002820490506001821680612d2357607f821691505b602082108103612d3657612d35612cdc565b5b50919050565b7f4552433732313a20617070726f76616c20746f2063757272656e74206f776e6560008201527f7200000000000000000000000000000000000000000000000000000000000000602082015250565b6000612d98602183612406565b9150612da382612d3c565b604082019050919050565b60006020820190508181036000830152612dc781612d8b565b9050919050565b7f4552433732313a20617070726f76652063616c6c6572206973206e6f7420746f60008201527f6b656e206f776e6572206e6f7220617070726f76656420666f7220616c6c0000602082015250565b6000612e2a603e83612406565b9150612e3582612dce565b604082019050919050565b60006020820190508181036000830152612e5981612e1d565b9050919050565b7f4552433732313a2063616c6c6572206973206e6f7420746f6b656e206f776e6560008201527f72206e6f7220617070726f766564000000000000000000000000000000000000602082015250565b6000612ebc602e83612406565b9150612ec782612e60565b604082019050919050565b60006020820190508181036000830152612eeb81612eaf565b9050919050565b7f4552433732313a20696e76616c696420746f6b656e2049440000000000000000600082015250565b6000612f28601883612406565b9150612f3382612ef2565b602082019050919050565b60006020820190508181036000830152612f5781612f1b565b9050919050565b7f4d617820737570706c7920657863656564656421000000000000000000000000600082015250565b6000612f94601483612406565b9150612f9f82612f5e565b602082019050919050565b60006020820190508181036000830152612fc381612f87565b9050919050565b7f496e73756666696369656e742066756e64732100000000000000000000000000600082015250565b6000613000601383612406565b915061300b82612fca565b602082019050919050565b6000602082019050818103600083015261302f81612ff3565b9050919050565b60008190508160005260206000209050919050565b60006020601f8301049050919050565b600082821b905092915050565b6000600883026130987fffffffffffffffffffffffffffffffffffffffffffffffffffffffffffffffff8261305b565b6130a2868361305b565b95508019841693508086168417925050509392505050565b6000819050919050565b60006130df6130da6130d5846124ad565b6130ba565b6124ad565b9050919050565b6000819050919050565b6130f9836130c4565b61310d613105826130e6565b848454613068565b825550505050565b600090565b613122613115565b61312d8184846130f0565b505050565b5b818110156131515761314660008261311a565b600181019050613133565b5050565b601f8211156131965761316781613036565b6131708461304b565b8101602085101561317f578190505b61319361318b8561304b565b830182613132565b50505b505050565b600082821c905092915050565b60006131b96000198460080261319b565b1980831691505092915050565b60006131d283836131a8565b9150826002028217905092915050565b6131eb826123fb565b67ffffffffffffffff811115613204576132036126f1565b5b61320e8254612d0b565b613219828285613155565b600060209050601f83116001811461324c576000841561323a578287015190505b61324485826131c6565b8655506132ac565b601f19841661325a86613036565b60005b828110156132825784890151825560018201915060208501945060208101905061325d565b8683101561329f578489015161329b601f8916826131a8565b8355505b6001600288020188555050505b505050505050565b7f4552433732313a2061646472657373207a65726f206973206e6f74206120766160008201527f6c6964206f776e65720000000000000000000000000000000000000000000000602082015250565b6000613310602983612406565b915061331b826132b4565b604082019050919050565b6000602082019050818103600083015261333f81613303565b9050919050565b600081905092915050565b600061335c826123fb565b6133668185613346565b9350613376818560208601612417565b80840191505092915050565b600061338e8285613351565b915061339a8284613351565b91508190509392505050565b7f4f776e61626c653a206e6577206f776e657220697320746865207a65726f206160008201527f6464726573730000000000000000000000000000000000000000000000000000602082015250565b6000613402602683612406565b915061340d826133a6565b604082019050919050565b60006020820190508181036000830152613431816133f5565b9050919050565b7f4552433732313a207472616e736665722066726f6d20696e636f72726563742060008201527f6f776e6572000000000000000000000000000000000000000000000000000000602082015250565b6000613494602583612406565b915061349f82613438565b604082019050919050565b600060208201905081810360008301526134c381613487565b9050919050565b7f4552433732313a207472616e7366657220746f20746865207a65726f2061646460008201527f7265737300000000000000000000000000000000000000000000000000000000602082015250565b6000613526602483612406565b9150613531826134ca565b604082019050919050565b6000602082019050818103600083015261355581613519565b9050919050565b7f4e487b7100000000000000000000000000000000000000000000000000000000600052601160045260246000fd5b6000613596826124ad565b91506135a1836124ad565b92508282039050818111156135b9576135b861355c565b5b92915050565b60006135ca826124ad565b91506135d5836124ad565b92508282019050808211156135ed576135ec61355c565b5b92915050565b7f4f776e61626c653a2063616c6c6572206973206e6f7420746865206f776e6572600082015250565b6000613629602083612406565b9150613634826135f3565b602082019050919050565b600060208201905081810360008301526136588161361c565b9050919050565b7f4552433732313a20617070726f766520746f2063616c6c657200000000000000600082015250565b6000613695601983612406565b91506136a08261365f565b602082019050919050565b600060208201905081810360008301526136c481613688565b9050919050565b7f4552433732313a207472616e7366657220746f206e6f6e20455243373231526560008201527f63656976657220696d706c656d656e7465720000000000000000000000000000602082015250565b6000613727603283612406565b9150613732826136cb565b604082019050919050565b600060208201905081810360008301526137568161371a565b9050919050565b6000613768826124ad565b91507fffffffffffffffffffffffffffffffffffffffffffffffffffffffffffffffff820361379a5761379961355c565b5b600182019050919050565b7f4e487b7100000000000000000000000000000000000000000000000000000000600052601260045260246000fd5b60006137df826124ad565b91506137ea836124ad565b9250826137fa576137f96137a5565b5b828204905092915050565b6000613810826124ad565b915061381b836124ad565b92508261382b5761382a6137a5565b5b828206905092915050565b7f4e487b7100000000000000000000000000000000000000000000000000000000600052603260045260246000fd5b600081519050919050565b600082825260208201905092915050565b600061388c82613865565b6138968185613870565b93506138a6818560208601612417565b6138af81612441565b840191505092915050565b60006080820190506138cf6000830187612542565b6138dc6020830186612542565b6138e960408301856125d8565b81810360608301526138fb8184613881565b905095945050505050565b6000815190506139158161236c565b92915050565b60006020828403121561393157613930612336565b5b600061393f84828501613906565b91505092915050565b7f4552433732313a206d696e7420746f20746865207a65726f2061646472657373600082015250565b600061397e602083612406565b915061398982613948565b602082019050919050565b600060208201905081810360008301526139ad81613971565b9050919050565b7f4552433732313a20746f6b656e20616c7265616479206d696e74656400000000600082015250565b60006139ea601c83612406565b91506139f5826139b4565b602082019050919050565b60006020820190508181036000830152613a19816139dd565b905091905056fea264697066735822122070571e99893d0369a8e3280718ca282c898cdf4d84621bc8c09da5cbe7011e4164736f6c63430008110033",
  "linkReferences": {},
  "deployedLinkReferences": {}
}